:100000000C9441290C9472290C9472290C94722935
:100010000C9472290C94EB640C9472290C94722940
:100020000C9470640C9472290C9472290C94CACDAF
:100030000C9472290D9475BB0C9472290C9472293E
:100040000C9472290D9413010C9472290C9472294A
:100050000C9472290C9472290D9491210D94A6B3DD
:100060000C9472290C94C7370C9472290C94722941
:100070000C9472290C9472290C9472290C94722994
:100080000C9472290C9472290C9472290C94722984
:100090000C940B380C9472290C9472290C947229CC
:1000A0000C9472290C9472290C9472290C94722964
:1000B0000C9472290C9472290C9472290C94722954
:1000C0000C9472290C9472290C9472290C94722944
:1000D0000C9472290C9472290C9472290C94722934
:1000E0000C947229CA36CE36D336DB36F036093751
:1000F0002E37583756016C014E018C017E01B0013C
:10010000AC01CC01E601F0017A01600142015C0121
:1001100038013201BE01500172018E01AA01740141
:10012000E201EA018801B601B601B601E001E00191
:10013000E001C2016601E001D001A201C0013A0163
:1001400090019401EC019E01CA01C801C401400163
:100150009601A6014C01EC0168019801620186013B
:100160008A0148012E015E01EE0130014A01F201CF
:10017000AE016E01CE0134017C01EE01D601A80171
:10018000B401084AD73B3BCE016E84BCBFFDC12FF2
:100190003D6C74319ABD56833DDA3D00C77F11BE78
:1001A000D9E4BB4C3E916BAAAABE000000803F057B
:1001B000A84CCDB2D44EB93836A9020C50B99186AC
:1001C00088083CA6AAAA2ABE000000803F07634216
:1001D00036B79BD8A71A39685618AEBAAB558C1DDE
:1001E0003CB7CC5763BD6DEDFD753EF6177231BF60
:1001F000000000803F08000000BE922449123EAB80
:10020000AAAA2ABECDCCCC4C3E00000080BEABAA30
:10021000AAAA3E00000000BF000000803F000000CE
:100220000000084178D3BB4387D1133D190E3CC36E
:10023000BD4282AD2B3E68EC8276BED98FE1A93EED
:100240004C80EFFFBE01C4FF7F3F000000000000B4
:100250000D943AA80D949A8E0D94E9870D9496B555
:100260000D94A7B50D94C3690D94C3B50D942331B6
:100270000D94B3690D94F1B40D9454770D94CA4F55
:100280000D9433B50D948C690D94044E0D94684C07
:100290000D9492B50D94ABB50D9456B50D940E5FBB
:1002A0000D94FD690D942F5A0D94C23E0D94F85E85
:1002B0000D9436A80D94807E0D94A2690D949CB582
:1002C0000D9479690D9474B50D94E3340D94526BCB
:1002D0000D9460B50D9471B60D94095F0D94B9B588
:1002E0000D94885A0D94B46A0D94EC6A0D942B3ECB
:1002F0000D94B84F0D94A95F0D94C7B50D944C5F44
:100300000D94BAA80D94BB3D0D94F8340D94A0B58E
:100310000D942F6B0D94A3B50D94255F0D94CD6AAC
:100320000D94FBB40D94EF460D9405B50D943DB5B9
:100330000D946AB50D94C14F0D94C3330D940FB550
:100340000D9490540D94E7B40D94539F0D944CB5B7
:100350000D94D1B50D94D96A0D94565F0D94B5B531
:100360000D94515F0D94F1590D94D5B50D94326BE8
:100370000D940A520D94188A0D94AF4F0D94E369B1
:100380000D94ECB40D94356B0D9429B50D94355343
:100390000D941FB50D9417B50D94675F0D94BFB5FF
:1003A0000D943A6B0D94365C0D94927F0D94CDB5FF
:1003B0000D94DE500D94AA800D942D440D94B599A2
:1003C0000D94476B0D94056B0D94923E0D94785FE0
:1003D0000D945D530D942C6B0D947EB50D94DAB590
:1003E0000D94895F0D94B1B50D942E320D9430A803
:1003F0000D945E360D943A920D9434500D946C80A9
:100400000D94F2340D940E3F48617264636F64651D
:10041000642044656661756C742053657474696EFC
:100420006773204C6F616465640053746F72656418
:100430002073657474696E67732072657472696580
:1004400076656400202020452F44203D2000202098
:10045000204D393030204B004C696E65617220614F
:100460006476616E63652073657474696E67733A50
:100470000046696C616D656E742073657474696E95
:1004800067733A2044697361626C656400202020C0
:100490004D32303020440046696C616D656E7420C9
:1004A00073657474696E67733A002020204D323092
:1004B000392053004175746F2D52657472616374F5
:1004C0003A20533D3020746F2064697361626C651B
:1004D0002C203120746F20696E746572707265749F
:1004E00020657874727564652D6F6E6C79206D6F00
:1004F0007665732061732072657472616374732012
:100500006F72207265636F7665726965730020464D
:10051000002020204D3230382053005265636F7622
:1005200065723A20533D4578747261206C656E6740
:10053000746820286D6D2920463A537065656420E3
:10054000286D6D2F6D2900205A00204600202020A4
:100550004D323037205300526574726163743A2013
:10056000533D4C656E67746820286D6D2920463AAE
:10057000537065656420286D6D2F6D29205A3A20CF
:100580005A4C69667420286D6D290020440020496A
:10059000002020204D333034205000504944206842
:1005A0006561746265642073657474696E67733A1B
:1005B000002044002049002020204D3330312050BD
:1005C000005049442073657474696E67733A002063
:1005D0005A0020590020204D323036205800486FF4
:1005E0006D65206F666673657420286D6D293A000D
:1005F000204500205A0020590020580020420020A9
:10060000540020204D323035205300416476616E15
:10061000636564207661726961626C65733A205328
:100620003D4D696E20666565647261746520286D54
:100630006D2F73292C20543D4D696E2074726176A4
:10064000656C20666565647261746520286D6D2F28
:1006500073292C20423D6D696E696D756D2073653F
:10066000676D656E742074696D6520286D73292C23
:1006700020583D6D6178696D756D205859206A6507
:10068000726B20286D6D2F73292C20205A3D6D61CF
:1006900078696D756D205A206A65726B20286D6DC2
:1006A0002F73292C2020453D6D6178696D756D2073
:1006B00045206A65726B20286D6D2F7329002054C8
:1006C0000020204D323034205300416363656C6557
:1006D000726174696F6E3A20533D616363656C6546
:1006E000726174696F6E2C20543D7265747261631F
:1006F0007420616363656C65726174696F6E00205C
:100700004500205A0020590020204D323031205819
:10071000004D6178696D756D20416363656C65722C
:100720006174696F6E20286D6D2F7332293A002035
:100730004500205A0020590020204D3230332058E7
:10074000004D6178696D756D2066656564726174D0
:10075000657320286D6D2F73293A00204500205ABB
:100760000020590020204D39322058005374657004
:10077000732070657220756E69743A0053657474E5
:10078000696E67732053746F7265640045455052FB
:100790004F4D204572726F720029002C20002C20D2
:1007A00000706879736963616C20636F6F7264694C
:1007B0006E617465733A20280029002C20002C20DB
:1007C00000776F726C6420636F6F7264696E61741E
:1007D00065733A2028006F6B0A0020460020450010
:1007E0004731205A004D3234004D32362053256CAB
:1007F00075004D3130362053004D383200473120DE
:100800004625640047312045322A312046343830AD
:10081000004731205A002046323030300020590045
:1008200047312058004D383300506F736974696F39
:100830006E20726561642066726F6D2065657072EE
:100840006F6D3A004D3233202573002E67636F00C1
:1008500046656564726174653A007265636F7665BA
:10086000725F6D616368696E655F73746174655F03
:1008700061667465725F706F7765725F70616E69D3
:10088000632C20696E697469616C20007265636F06
:100890007665725F6D616368696E655F73746174BC
:1008A000655F61667465725F706F7765725F7061B6
:1008B0006E69632C20696E697469616C2000473928
:1008C0003220450063757272656E745F706F736974
:1008D00074696F6E5B455F415849535D3A006375BB
:1008E0007272656E745F706F736974696F6E5B5A54
:1008F0005F415849535D3A0043757272656E7420CA
:10090000706F736974696F6E20595F415849533A2B
:100910000043757272656E7420706F736974696FCD
:100920006E20585F415849533A0041667465722001
:1009300077616974696E6720666F722074656D7087
:100940003A00473120452D312046343830004731B8
:100950002045352046313230004D3833004D313995
:100960003020532564004D31303920532564004731
:10097000323820582059004731205A323520463825
:100980003030004D31343020532564004D31303447
:100990002053256400494E54340055564C4F202DA9
:1009A00020656E6400737470730020423A00204525
:1009B0003A00543A005A206C6976652061646A7581
:1009C0007374206F7574206F662072616E67652E78
:1009D0002053657474696E6720746F20302E204335
:1009E0006C69636B20746F20636F6E74696E7565DC
:1009F0002E005A206C6976652061646A75737420D4
:100A00006F7574206F662072616E67652E20536566
:100A10007474696E6720746F20300020573A00208C
:100A2000453A00543A004B494C4C3A20004D37307F
:100A300031004175746F0020452F443D00416476BC
:100A4000616E6365204B3D00222832290054004925
:100A50006E76616C6964205420636F64652E005566
:100A60006E6B6E6F776E204D20636F64653A202544
:100A700073200A006E6F2076616C696420636F6D6D
:100A80006D616E64002C20002C20002C20006E2F45
:100A900061002C20002C20002C20006E2F61002FE4
:100AA00000503A005761697420666F722050494EB9
:100AB0004441207461726765742074656D7065725D
:100AC00061747572653A004D3232302053256900E9
:100AD000203A2000004C414E472053454C20464FC1
:100AE0005243454400222831290030303030303024
:100AF00030302D303030302D303030302D303030FF
:100B0000302D303030303030303030303030002028
:100B1000555549443A0031002045585452554445F2
:100B2000525F434F554E543A005A617269626F20CA
:100B30004D4B332D33323000204D414348494E4513
:100B40005F545950453A00312E3000206261736580
:100B500064206F6E204D61726C696E204649524D63
:100B6000574152455F55524C3A68747470733A2F2E
:100B70002F6769746875622E636F6D2F707275735D
:100B80006133642F50727573612D4669726D7761A0
:100B900072652050524F544F434F4C5F564552534D
:100BA000494F4E3A004649524D574152455F4E41DA
:100BB0004D453A50727573612D4669726D77617259
:100BC0006520004D31313320530020002E0020429B
:100BD0003A0020453A00543A0020413A0020503A69
:100BE000002042403A0020403A00202F003A0020E6
:100BF0005400202F0020423A00202F006F6B205419
:100C00003A002569206D696E2C2025692073656383
:100C100000496E76616C6964204D20636F64653AAB
:100C2000202573200A00556E6B6E6F776E2047206B
:100C3000636F64653A202573200A004D6573682050
:100C4000626564206C6576656C696E67206E6F7492
:100C5000206163746976652E000A002020000A4D29
:100C60006561737572656420706F696E74733A00A4
:100C70000A5A2073656172636820686569676874E1
:100C80003A20002C004E756D20582C593A20002037
:100C90006D6963726F6E730045786365737369760F
:100CA0006520626564206C6576656C696E6720639B
:100CB0006F7272656374696F6E3A20004732382034
:100CC0005730003A200000205A207368696674206B
:100CD000286D6D293A0050494E44412074656D706D
:100CE000657261747572653A2000002F3600537486
:100CF00065703A200000205A2073686966742028C5
:100D00006D6D293A0050494E44412074656D7065FF
:100D10007261747572653A20002F362028736B69F2
:100D2000707065642900537465703A2000005A455C
:100D3000524F3A20000073746172742074656D70B4
:100D4000657261747572653A200050494E444120C5
:100D500070726F62652063616C6962726174696F41
:100D60006E20737461727400473238205730000A65
:100D700000205A3A200020593A200020583A2000FA
:100D80005345545F535445505F45005345545F5796
:100D90004156455F4500544D435F0043524153481F
:100DA0005F0020453A00205A3A0020593A00204579
:100DB0003A00205A3A0020593A00583A0043616CF0
:100DC0006962726174696F6E206661696C65642125
:100DD00020436865636B20746865206178657320C3
:100DE000616E642072756E20616761696E2E0025E8
:100DF000336420737465703D253264206D73636EB7
:100E0000743D2534640A0043524153485F444554BD
:100E1000454354454458590043524153485F444563
:100E2000544543544544590043524153485F444557
:100E300054454354454458004D3239006275737926
:100E40003A2070617573656420666F7220696E70F8
:100E5000757400627573793A2070617573656420EA
:100E6000666F72207573657200627573793A2070CF
:100E7000726F63657373696E67002055706C6F6184
:100E80006420696E2070726F6772657373004449E5
:100E90005341424C45440A00454E41424C45440AA8
:100EA000004653656E736F722000504154393132E1
:100EB000355F696E69743A25640A004D61792031A5
:100EC00033203230313800436F6D70696C65643A9D
:100ED0002000286E6F6E652C2064656661756C74E9
:100EE00020636F6E66696729004D61792031332078
:100EF000323031382031363A30383A353600203306
:100F00002E322E302D3535350A007374617274001F
:100F1000466163746F7279205245534554001B5BE0
:100F2000324A1B5B313B31485A617269626F205211
:100F3000657365617263681B5B323B334850727541
:100F4000736120526573656172636800250020201B
:100F50002020202000202020202020004552415326
:100F6000494E4720616C6C20646174610046616386
:100F7000746F72792052455345540043524153488F
:100F80005F5245434F56455200473238205820594A
:100F900000FFFFFF0000A0400000A0400000004054
:100FA00000007F43008058439AD95B430000000053
:100FB000000080C09A99193E00007F43008054438E
:100FC00000005C4300000000000080C09A99193EB8
:100FD0006563686F3A004572726F723A00000021D3
:100FE00010422063308440A550C660E77008812914
:100FF000914AA16BB18CC1ADD1CEE1EFF1311210AC
:101000000273325222B5529442F772D66239931863
:10101000837BB35AA3BDD39CC3FFF3DEE3622443B7
:101020003420040114E664C774A44485546AA54BB3
:10103000B528850995EEE5CFF5ACC58DD55336724B
:101040002611163006D776F6669556B4465BB77A03
:10105000A719973887DFF7FEE79DD7BCC7C448E5D7
:10106000588668A7784008611802282338CCC9ED53
:10107000D98EE9AFF9488969990AA92BB9F55AD4EB
:101080004AB77A966A711A500A333A122AFDDBDCA3
:10109000CBBFFB9EEB799B588B3BBB1AABA66C87F7
:1010A0007CE44CC55C222C033C600C411CAEED8FF3
:1010B000FDECCDCDDD2AAD0BBD688D499D977EB68B
:1010C0006ED55EF44E133E322E511E700E9FFFBE43
:1010D000EFDDDFFCCF1BBF3AAF599F788F8891A916
:1010E00081CAB1EBA10CD12DC14EF16FE18010A1ED
:1010F00000C230E3200450254046706760B98398F1
:1011000093FBA3DAB33DC31CD37FE35EF3B102903C
:1011100012F322D2323542145277625672EAB5CBBC
:10112000A5A89589856EF54FE52CD50DC5E234C38C
:1011300024A01481046674476424540544DBA7FA90
:10114000B79987B8975FE77EF71DC73CD7D326F2DC
:10115000369106B01657667676154634564CD96DDC
:10116000C90EF92FE9C899E9898AB9ABA94458652C
:101170004806782768C018E1088238A3287DCB5C30
:10118000DB3FEB1EFBF98BD89BBBAB9ABB754A547C
:101190005A376A167AF10AD01AB32A923A2EFD0FFC
:1011A000ED6CDD4DCDAABD8BADE89DC98D267C07CC
:1011B0006C645C454CA23C832CE01CC10C1FEF3ED0
:1011C000FF5DCF7CDF9BAFBABFD98FF89F176E361C
:1011D0007E554E745E932EB23ED10EF01E7C3C3E88
:1011E0005E2B3D3F2F5B5D3B2C2A225C004D323451
:1011F000004D3233202573006175746F25692E67A9
:10120000004E6F74205344207072696E74696E676B
:10121000000A002F000A002E0044656C6574696F97
:101220006E206661696C65642C2046696C653A20A5
:101230000046696C652064656C657465643A002ECF
:10124000002E002E002E004E6F77206672657368A8
:101250002066696C653A20004E6F7720646F696E76
:10126000672066696C653A20002220706F73002247
:1012700020706172656E743A2200535542524F5588
:1012800054494E452043414C4C207461726765744B
:101290003A2200747279696E6720746F2063616C02
:1012A0006C207375622D67636F64652066696C6579
:1012B00073207769746820746F6F206D616E792078
:1012C0006C6576656C732E204D4158206C65766593
:1012D0006C2069733A00256920686F757273202548
:1012E00069206D696E757465730054494D454F559D
:1012F000543A004D3131300046756C6C2052582004
:101300004275666665720022206661696C65643AA2
:10131000204275666665722066756C6C2100456EAC
:10132000717565696E6720746F20746865206672D8
:101330006F6E743A2022002200456E717565696EE9
:101340006720746F207468652066726F6E743A202F
:10135000220022206661696C65643A2042756666E7
:1013600065722066756C6C210022004D36303000AD
:101370004731204533204632303000473120452D5B
:101380003320463230300070617439313235206E8E
:101390006F7420726573706F6E64696E6720283198
:1013A000292E0A0070617439313235206E6F742035
:1013B000726573706F6E64696E67202832292E0A19
:1013C0000070617439313235206E6F74207265732C
:1013D000706F6E64696E67202833292E0A005041B1
:1013E00054393132355F696E69743A25640A005A9E
:1013F000617269626F204D4B332D333230206F6B39
:101400002E007A5F6D696E3A20007A5F6D61783ADE
:1014100020005A204F666673657400795F6D696EAF
:101420003A2000795F6D61783A2000592064697331
:1014300074616E63652066726F6D206D696E3A002F
:1014400059657300785F6D696E3A2000785F6D6151
:10145000783A200058595A2063616C2E20646574D4
:1014600061696C7300492077696C6C2072756E201D
:101470007A2063616C6962726174696F6E206E6F4D
:10148000772E00492077696C6C2072756E20787910
:101490007A2063616C6962726174696F6E206E6F2D
:1014A000772E2049742077696C6C2074616B6520FD
:1014B000617070726F782E203132206D696E732EDC
:1014C000004E6F7720492077696C6C2070726568D8
:1014D000656174206E6F7A7A6C6520666F72205039
:1014E0004C412E0048692C204920616D20796F7590
:1014F00072204F726967696E616C205072757361FA
:10150000206933207072696E7465722E20576F7572
:101510006C6420796F75206C696B65206D65207433
:101520006F20677569646520796F75207468726FC4
:1015300075676820746865207365747570207072B3
:101540006F636573733F00492077696C6C20737417
:1015500061727420746F207072696E74206C696E91
:101560006520616E6420796F752077696C6C2067E7
:1015700072616475616C6C79206C6F776572207430
:101580006865206E6F7A7A6C6520627920726F745C
:101590006174696E6720746865206B6E6F622C20C1
:1015A000756E74696C20796F75207265616368204F
:1015B0006F7074696D616C206865696768742E204E
:1015C000436865636B207468652070696374757225
:1015D000657320696E206F75722068616E64626F3A
:1015E0006F6B20696E20636861707465722043615F
:1015F0006C6962726174696F6E2E004E6F7720495C
:101600002077696C6C2063616C696272617465201B
:1016100064697374616E6365206265747765656E75
:1016200020746970206F6620746865206E6F7A7A06
:101630006C6520616E642068656174626564207306
:101640007572666163652E0046697273742C204959
:101650002077696C6C2072756E20746865207365E4
:101660006C667465737420746F20636865636B20A7
:101670006D6F737420636F6D6D6F6E206173736532
:101680006D626C792070726F626C656D732E0052A2
:10169000756E6E696E672057697A6172642077692A
:1016A0006C6C2064656C6574652063757272656E20
:1016B000742063616C6962726174696F6E20726517
:1016C00073756C747320616E64207374617274201E
:1016D00066726F6D2074686520626567696E6E69F9
:1016E0006E672E20436F6E74696E75653F00446FA0
:1016F00020796F752077616E7420746F2072657029
:10170000656174206C617374207374657020746FEC
:1017100020726561646A7573742064697374616EA4
:101720006365206265747765656E206E6F7A7A6C8A
:101730006520616E6420686561746265643F00596C
:101740006F752063616E20616C77617973207265BB
:1017500073756D65207468652057697A61726420BD
:1017600066726F6D2043616C6962726174696F6E3D
:10177000202D3E2057697A6172642E0049732069DA
:101780007420504C412066696C616D656E743F0039
:10179000506C6561736520696E7365727420504C7E
:1017A000412066696C616D656E7420746F20746889
:1017B000652065787472756465722C207468656E36
:1017C000207072657373206B6E6F6220746F206C73
:1017D0006F61642069742E00506C65617365206CC4
:1017E0006F616420504C412066696C616D656E7458
:1017F00020616E64207468656E20726573756D6516
:101800002057697A617264206279207265626F6F15
:1018100074696E6720746865207072696E74657291
:101820002E0050726568656174696E67206E6F7A0C
:101830007A6C652E20506C656173652077616974E0
:101840002E0049732066696C616D656E74206C6F43
:10185000616465643F00416C6C20697320646F6E45
:10186000652E204861707079207072696E74696E9F
:10187000672100506C6561736520636C65616E2043
:101880006865617462656420616E64207468656E69
:1018900020707265737320746865206B6E6F622EA2
:1018A00000506C6561736520636865636B206F75BC
:1018B000722068616E64626F6F6B20616E64206677
:1018C0006978207468652070726F626C656D2E2077
:1018D0005468656E20726573756D65207468652047
:1018E00057697A617264206279207265626F6F74E1
:1018F000696E6720746865207072696E7465722EF7
:101900000057697A61726400205761746368646F7C
:101910006720526573657400496E666F2073637249
:1019200065656E0057616974696E6720666F722025
:1019300050494E44412070726F626520636F6F6C36
:10194000696E670057616974696E6720666F7220FF
:101950006E6F7A7A6C6520616E64206265642063C4
:101960006F6F6C696E67004669727374206C617981
:1019700065722063616C2E005761697420666F7216
:1019800020757365722E2E2E005573656420647564
:1019900072696E67207072696E7400576173206699
:1019A000696C616D656E7420756E6C6F6164207317
:1019B00075636365737366756C3F00556E6C6F611C
:1019C000642066696C616D656E7400556E6C6F6144
:1019D00064696E672066696C616D656E7400556E32
:1019E0006B6E6F776E20636F6D6D616E643A20224F
:1019F0000054756E650053442063617264205B4639
:101A00006C73684169725D005344206361726420A5
:101A1000205B6E6F726D616C5D00537461626C650A
:101A200020616D6269656E742074656D70657261A8
:101A3000747572652032312D323643206973206E01
:101A400065656465642061207269676964207374E8
:101A5000616E642069732072657175697265642EA8
:101A60000054656D70657261747572652063616C98
:101A70006962726174696F6E206661696C65640089
:101A800054656D702E2063616C2E2020205B6F6E7C
:101A90005D0054656D702E2063616C2E20205B6F9D
:101AA00066665D0054656D7065726174757265205F
:101AB00063616C6962726174696F6E20697320661C
:101AC000696E697368656420616E6420616374691E
:101AD00076652E2054656D702E2063616C6962728C
:101AE0006174696F6E2063616E2062652064697342
:101AF00061626C656420696E206D656E752053654A
:101B00007474696E67732D3E54656D702E20636129
:101B10006C2E0054656D702E2063616C2E20202089
:101B2000202020202020200054656D706572617493
:101B300075726500537570706F72740053746F70B6
:101B4000207072696E740053544F505045442E20DB
:101B500000537465707261746520746F6F206869DA
:101B600067683A2000497320737465656C20736858
:101B7000656574206F6E20686561746265643F00FE
:101B80004D6F6465202020205B537465616C746820
:101B90005D004D6F646520202020205B4E6F726DCC
:101BA000616C5D00546F74616C207072696E74209A
:101BB00074696D65203A00546F74616C2066696CBD
:101BC000616D656E74203A005072696E742074699C
:101BD0006D653A20200046696C616D656E742075F4
:101BE0007365643A20200053746174697374696387
:101BF000732020004572726F72202D2073746174FF
:101C00006963206D656D6F7279206861732062650C
:101C1000656E206F7665727772697474656E0053B5
:101C20007065656400536F72743A20202020202074
:101C30005B54696D655D00536F72743A20202020FB
:101C400020205B4E6F6E655D00536F72743A2020EA
:101C50005B416C7068616265745D00536F7274699A
:101C60006E672066696C65730020536F66747761D8
:101C7000726520526573657400536C6967687420DF
:101C8000736B65773A0053686F7720656E642073D5
:101C9000746F70730053657665726520736B65773A
:101CA0003A005365742074656D7065726174757265
:101CB000653A0053657474696E6773005769726999
:101CC0006E67206572726F72005377617070656421
:101CD0000053656C6620746573742073746172744C
:101CE0002020005072696E742066616E3A00506C5C
:101CF0006561736520636865636B203A0053656CAA
:101D0000662074657374204F4B004E6F7420636FB0
:101D10006E6E6563746564004D6F746F7200486524
:101D2000617465722F546865726D6973746F7200A7
:101D300046696C616D656E742073656E736F723A7F
:101D4000005370696E6E696E67004E6F7420737019
:101D5000696E6E696E670046726F6E742F6C656691
:101D6000742066616E730046616E20746573740042
:101D700053656C6674657374206661696C65642074
:101D8000200045787472756465722066616E3A0051
:101D90004C65667420686F74656E642066616E3F82
:101DA0000053656C6674657374206572726F72207F
:101DB0002100456E6473746F70206E6F74206869C3
:101DC0007400456E6473746F707300456E64737451
:101DD0006F700046726F6E74207072696E74206648
:101DE000616E3F00436865636B696E67205A2061CE
:101DF000786973202000436865636B696E672059BA
:101E00002061786973202000436865636B696E67A1
:101E100020582061786973202000436865636B69EE
:101E20006E6720686F74656E642020004368656388
:101E30006B696E672073656E736F72732000436801
:101E400065636B696E6720656E6473746F70730091
:101E5000436865636B696E6720626564202020209B
:101E60002000416C6C20636F7272656374202020C7
:101E700020202000426564202F204865617465722F
:101E80000041786973206C656E67746800417869F9
:101E9000730053656C6674657374202020202020C5
:101EA0002020200052506920706F72742020202062
:101EB000205B6F6E5D0052506920706F727420203D
:101EC00020205B6F66665D0057726974696E6720DB
:101ED000746F2066696C653A2000766F6C756D656D
:101EE0002E696E6974206661696C656400205369AF
:101EF0007A653A2000436172642072656D6F766581
:101F000064005344207072696E74696E6720627950
:101F1000746520006F70656E206661696C65642C65
:101F20002046696C653A20006F70656E526F6F7461
:101F3000206661696C6564004361726420696E7338
:101F4000657274656400534420696E69742066612B
:101F5000696C0046696C652073656C6563746564C3
:101F60000046696C65206F70656E65643A20006597
:101F700072726F722077726974696E6720746F2055
:101F800066696C650053442063617264206F6B0066
:101F900043616E6E6F7420656E7465722073756236
:101FA0006469723A200052696768743A0052657336
:101FB000756D696E67207072696E74005265737515
:101FC0006D696E67207072696E7400526573756D0D
:101FD00065207072696E7400526573656E643A2094
:101FE00000506C656173652072656D6F7665207356
:101FF0007465656C2073686565742066726F6D200A
:10200000686561746265642E00426C61636B6F7514
:1020100074206F636375727265642E205265636FFE
:10202000766572207072696E743F005265636F76D8
:102030006572696E67207072696E742020202000BE
:10204000506C656173652070756C6C206F757420C1
:1020500066696C616D656E7420696D6D656469613A
:1020600074656C7900686F77746F2E707275736128
:1020700033642E636F6D00666F72756D2E707275AE
:10208000736133642E636F6D0070727573613364B6
:102090002E636F6D005072696E7420706175736588
:1020A00064005072696E742061626F7274656400BE
:1020B000506C656173652070726573732074686518
:1020C000206B6E6F6220746F20756E6C6F61642080
:1020D00066696C616D656E74005072657373206B18
:1020E0006E6F6220746F2070726568656174206E17
:1020F0006F7A7A6C6520616E6420636F6E74696EAE
:1021000075652E00616E642070726573732074684B
:1021100065206B6E6F620050726568656174207433
:102120006865206E6F7A7A6C65210050726568650B
:10213000617400506F776572557000506C65617303
:1021400065207761697400506C65617365206C6F00
:10215000616420504C412066696C616D656E74202D
:1021600066697273742E00497320504C4120666971
:102170006C616D656E74206C6F616465643F0020F6
:1021800020506C616E6E657242756666657242794A
:102190007465733A2000506C6561736520706C61E2
:1021A000636520737465656C207368656574206F62
:1021B0006E20686561746265642E0050494E44412A
:1021C0002048656174696E67005049442063616C02
:1021D0002E20202020202020202020200050494494
:1021E0002063616C2E2066696E69736865640050B7
:1021F00049442063616C6962726174696F6E00505A
:1022000061757365207072696E7400506C616365EE
:102210002061207368656574206F66207061706549
:102220007220756E64657220746865206E6F7A7AAC
:102230006C6520647572696E6720746865206361DF
:102240006C6962726174696F6E206F662066697274
:102250007374203420706F696E74732E2049662069
:10226000746865206E6F7A7A6C6520636174636848
:102270006573207468652070617065722C20706FC2
:10228000776572206F666620746865207072696E6B
:1022900074657220696D6D6564696174656C792E11
:1022A000006F6B004F6666004E6F206D6F76652E77
:1022B000004E6F2053442063617264004E6F7A7A3F
:1022C0006C650046696C616D656E74206E6F74207C
:1022D0006C6F6164656400436F6C6F72206E6F7425
:1022E00020636F7272656374004E6F00506C65619D
:1022F000736520757067726164652E004E65772086
:102300006669726D776172652076657273696F6E4A
:1023100020617661696C61626C653A004D6F76652B
:10232000205A004D6F76652059004D6F7665205814
:10233000004578747275646572004D6F7665206132
:10234000786973004D65736820426564204C65763A
:10235000656C696E6700566F6C74616765730054D5
:10236000656D7065726174757265730043616C6947
:1023700062726174696F6E0042656C74207374617F
:1023800074757300206F662039004D656173757236
:10239000696E67207265666572656E636520686543
:1023A00069676874206F662063616C69627261742A
:1023B000696F6E20706F696E74004D656173757220
:1023C000656420736B65773A004D61696E004D322C
:1023D000323120496E76616C69642065787472755B
:1023E00064657220004D32313820496E76616C6927
:1023F0006420657874727564657220004D323030E7
:1024000020496E76616C69642065787472756465C4
:102410007220005265706F7274696E6720656E6419
:1024200073746F7020737461747573004D3131373C
:10243000204669727374206C617965722063616CE7
:102440002E004D31303920496E76616C696420650B
:102450007874727564657220004D31303520496E94
:1024600076616C69642065787472756465722000A9
:102470004D31303420496E76616C69642065787422
:10248000727564657220004C6F6F73652070756C97
:102490006C6579004C6F61642066696C616D656E76
:1024A00074004C6F6164696E672066696C616D656C
:1024B0006E74004C6F6164696E6720636F6C6F723D
:1024C000004C6566743A004B494C4C45442E200044
:1024D000496E76616C6964206578747275646572A2
:1024E00000496E736572742066696C616D656E7407
:1024F000005072696E742046414E3A20004E6F7A49
:102500007A6C652046414E3A004578747275646570
:102510007220696E666F0043616C696272617469F2
:102520006E67205A0043616C6962726174696F6EF4
:1025300020646F6E650043616C696272617465202E
:102540005A0048656174696E6720646F6E652E007D
:1025500048656174696E67004552524F523A204691
:10256000696C616D656E742073656E736F7220693E
:1025700073206E6F7420726573706F6E64696E671E
:102580002C20706C6561736520636865636B2063E4
:102590006F6E6E656374696F6E2E00462E206175D6
:1025A000746F6C6F616420205B6F6E5D00462E203F
:1025B0006175746F6C6F6164205B6F66665D004669
:1025C0002E206175746F6C6F6164205B4E2F415DCE
:1025D0000046696C2E2073656E736F7220205B6FEE
:1025E0006E5D0046696C2E2073656E736F72205BA2
:1025F0006F66665D0046696C2E2073656E736F7240
:10260000205B4E2F415D002046726565204D656D53
:102610006F72793A200053656C6674657374207725
:10262000696C6C2062652072756E20746F20636126
:102630006C6962726174652061636375726174654F
:102640002073656E736F726C657373207265686F4B
:102650006D696E672E005072696E746572206861D4
:1026600073206E6F74206265656E2063616C6962B1
:102670007261746564207965742E20506C65617395
:102680006520666F6C6C6F7720746865206D616E75
:1026900075616C2C20636861707465722046697284
:1026A00073742073746570732C2073656374696F21
:1026B0006E2043616C6962726174696F6E20666C32
:1026C0006F772E00466C6F770046696E6973686994
:1026D0006E67206D6F76656D656E747300206F6632
:1026E000203400536561726368696E6720626564B7
:1026F0002063616C6962726174696F6E20706F69CA
:102700006E7400446F6E6520736176696E67206633
:10271000696C652E00446F6E65207072696E746915
:102720006E672066696C650046696C6520696E633A
:102730006F6D706C6574652E20436F6E74696E7575
:102740006520616E797761793F00536F6D65206612
:10275000696C65732077696C6C206E6F742062659C
:1027600020736F727465642E204D61782E204E6F39
:102770002E206F662066696C657320696E2031209B
:10278000666F6C64657220666F7220736F72746915
:102790006E67206973203130302E0046696C616DA0
:1027A000656E742073656E736F720046696C616D3F
:1027B000656E7420657874727564696E6720262072
:1027C0007769746820636F727265637420636F6CDD
:1027D0006F723F004368616E67652066696C616D6A
:1027E000656E740046616E207370656564004661B5
:1027F0006E7320636865636B2020205B6F6E5D00E5
:1028000046616E7320636865636B20205B6F66664C
:102810005D00656E717565696E6720220020205B22
:102820006F666600452D636F72726563740045784C
:10283000747275646572002045787465726E616C9F
:10284000205265736574005072696E7465722073EE
:10285000746F707065642064756520746F20657294
:10286000726F72732E2046697820746865206572D5
:10287000726F7220616E6420757365204D3939392D
:1028800020746F20726573746172742E20285465F1
:102890006D706572617475726520697320726573FD
:1028A00065742E20536574206974206166746572A6
:1028B0002072657374617274696E6729004E6F20AF
:1028C0004C696E65204E756D62657220776974681B
:1028D00020636865636B73756D2C204C6173742085
:1028E0004C696E653A20004E6F20436865636B73D8
:1028F000756D2077697468206C696E65206E756DE2
:102900006265722C204C617374204C696E653A20AC
:102910000020746F6F206C6F6E672065787472751D
:1029200073696F6E2070726576656E746564004CB5
:10293000696E65204E756D626572206973206E6FD9
:1029400074204C617374204C696E65204E756D6205
:1029500065722B312C204C617374204C696E653A82
:1029600020005072696E7465722068616C746564D1
:102970002E206B696C6C28292063616C6C65642166
:102980000020636F6C6420657874727573696F6E74
:102990002070726576656E74656400636865636B4C
:1029A00073756D206D69736D617463682C204C6163
:1029B0007374204C696E653A20004552524F523A6A
:1029C00000456E642066696C65206C697374006FE5
:1029D00070656E0054524947474552454400656E44
:1029E0006473746F7073206869743A2000536C6567
:1029F00065702E2E2E0044697361626C65207374BD
:102A0000657070657273004F6C64207365747469CF
:102A10006E677320666F756E642E204465666175FF
:102A20006C74205049442C20457374657073206584
:102A300074632E2077696C6C206265207365742E38
:102A400000446174653A0043757272656E74001BD0
:102A50005B324A5741524E494E473A1B5B313B303D
:102A600048437261736820646574656374696F6E4E
:102A70001B5B323B304864697361626C656420693A
:102A80006E1B5B333B3048537465616C7468206D1A
:102A90006F6465001B5B324A437261736820646532
:102AA00074656374696F6E2063616E1B5B313B30CC
:102AB000486265207475726E6564206F6E206F6E5B
:102AC0006C7920696E1B5B323B30484E6F726D61D2
:102AD0006C206D6F64650043726173682064657477
:102AE00065637465642E0043726173682064657465
:102AF0002E2020205B6F6E5D00437261736820643E
:102B000065742E20205B6F66665D0043726173689A
:102B1000206465742E20205B4E2F415D0020436FA2
:102B2000756E7420583A20004368616E67656420B2
:102B3000636F72726563746C793F00436F6F6C648E
:102B40006F776E00506C6561736520636C65616EB4
:102B500020746865206E6F7A7A6C6520666F7220CB
:102B600063616C6962726174696F6E2E20436C6977
:102B7000636B207768656E20646F6E652E00204C55
:102B800061737420557064617465643A2000436811
:102B90006F6F73652065787472756465723A005062
:102BA0006C65617365206F70656E2069646C657219
:102BB00020616E642072656D6F76652066696C6158
:102BC0006D656E74206D616E75616C6C792E00435D
:102BD00068616E6765207375636365737321005761
:102BE00061726E696E673A207072696E74657220E8
:102BF00074797065206368616E6765642E00576143
:102C0000726E696E673A206D6F74686572626F618B
:102C100072642074797065206368616E6765642EE4
:102C2000005761726E696E673A20626F7468207037
:102C300072696E746572207479706520616E6420AB
:102C40006D6F74686572626F61726420747970650B
:102C5000206368616E6765642E005072696E74202F
:102C600066726F6D2053440054656D702E20636151
:102C70006C6962726174696F6E0043616C69627243
:102C80006174696E67205A0043616C696272617495
:102C9000650052657365742058595A2063616C69E8
:102CA00062722E0043616C696272617465205859CA
:102CB0005A002042726F776E206F757420526573D0
:102CC000657400426567696E2066696C65206C6991
:102CD00073740058595A2063616C69627261746937
:102CE0006F6E20636F6D70726F6D697365642E20F7
:102CF0004C6566742066726F6E742063616C6962E5
:102D0000726174696F6E20706F696E74206E6F747B
:102D100020726561636861626C652E0058595A20A3
:102D200063616C6962726174696F6E20636F6D704C
:102D3000726F6D697365642E2046726F6E742063C6
:102D4000616C6962726174696F6E20706F696E7414
:102D500073206E6F7420726561636861626C652EAA
:102D60000058595A2063616C6962726174696F6EB0
:102D700020616C6C2072696768742E20582F59206E
:102D8000617865732061726520736C696768746C23
:102D90007920736B657765642E20476F6F64206AB6
:102DA0006F62210058595A2063616C6962726174C4
:102DB000696F6E20616C6C2072696768742E205395
:102DC0006B65772077696C6C20626520636F727227
:102DD0006563746564206175746F6D6174696361A6
:102DE0006C6C792E0058595A2063616C696272616B
:102DF00074696F6E206661696C65642E204265643B
:102E00002063616C6962726174696F6E20706F69B2
:102E10006E7420776173206E6F7420666F756E64B8
:102E20002E0058595A2063616C6962726174696F2F
:102E30006E206F6B2E20582F5920617865732061AA
:102E400072652070657270656E646963756C61721D
:102E50002E20436F6E67726174756C6174696F6E5A
:102E600073210058595A2063616C696272617469F8
:102E70006F6E206661696C65642E20506C656173AD
:102E80006520636F6E73756C7420746865206D6166
:102E90006E75616C2E0058595A2063616C696272BC
:102EA0006174696F6E206661696C65642E204C6583
:102EB00066742066726F6E742063616C6962726101
:102EC00074696F6E20706F696E74206E6F742072FB
:102ED0006561636861626C652E0058595A206361B0
:102EE0006C6962726174696F6E206661696C656499
:102EF0002E2046726F6E742063616C696272617419
:102F0000696F6E20706F696E7473206E6F742072BB
:102F10006561636861626C652E00426564206C6562
:102F200076656C696E67206661696C65642E2053F6
:102F3000656E736F7220646973636F6E6E65637420
:102F40006564206F72206361626C652062726F6BD2
:102F5000656E2E2057616974696E6720666F7220F6
:102F600072657365742E00426564206C6576656CCD
:102F7000696E67206661696C65642E2053656E73A7
:102F80006F72206469646E74207472696767657219
:102F90002E20446562726973206F6E206E6F7A7A9C
:102FA0006C653F2057616974696E6720666F722097
:102FB00072657365742E00426564206C6576656C7D
:102FC000696E67206661696C65642E2053656E7357
:102FD0006F722074726967676572656420746F6FC1
:102FE00020686967682E2057616974696E6720667A
:102FF0006F722072657365742E0048656174696E26
:10300000672064697361626C656420627920736112
:10301000666574792074696D65722E00426564205E
:1030200048656174696E670042656420646F6E650F
:1030300000526967687420736964655B756D5D0033
:10304000526573657400526561722073696465200E
:103050005B756D5D00426564206C6576656C206310
:103060006F7272656374004C656674207369646581
:10307000205B756D5D0046726F6E742073696465C8
:103080005B756D5D004265640044697374616E63D5
:1030900065206265747765656E20746970206F665F
:1030A00020746865206E6F7A7A6C6520616E64208A
:1030B000746865206265642073757266616365205B
:1030C000686173206E6F74206265656E207365742D
:1030D000207965742E20506C6561736520666F6C75
:1030E0006C6F7720746865206D616E75616C2C2043
:1030F00063686170746572204669727374207374BA
:103100006570732C2073656374696F6E20466972F5
:103110007374206C617965722063616C696272619D
:1031200074696F6E2E004C6976652061646A7573F0
:1031300074205A0041646A757374696E67205A007E
:103140004175746F20686F6D65004175746F4C6FC9
:1031500061642066696C616D656E74004175746FA1
:103160006C6F6164696E672066696C616D656E7411
:1031700020617661696C61626C65206F6E6C79208C
:103180007768656E2066696C616D656E7420736525
:103190006E736F72206973207475726E6564206F30
:1031A0006E2E2E2E004175746F6C6F6164696E67B0
:1031B0002066696C616D656E74206973206163744B
:1031C0006976652C206A757374207072657373203C
:1031D000746865206B6E6F6220616E6420696E7327
:1031E0006572742066696C616D656E742E2E2E009A
:1031F000207C20417574686F723A2000416C6C002D
:103200004163746976652045787472756465723AB5
:103210002000EF1302140A1412141B1423142B148D
:10322000401444144C14541465148314C114E4144D
:103230004715FB1548168F16EE163F177C1790178B
:10324000D8172218421856187318A118011908190E
:103250001819241944196719781989199B19BB1968
:10326000CB19DE19F119F619081A1A1A611A801AFF
:10327000921AA41A131B281B341B3C1B471B511BFF
:10328000651B801B921BA41BB71BC81BD61BE71B0F
:10329000F41B1F1C251C371C491C5B1C691C791C5A
:1032A000861C951CA21CB31CBC1CC91CD11CE31C95
:1032B000EE1CFD1C0A1D181D1E1D301D411D4A1D42
:1032C000571D671D701D821D901DA11DB21DC21DC1
:1032D000CB1DD31DE41DF61D081E1A1E2C1E3E1EFE
:1032E000501E621E741E811E8D1E921EA41EB61ECE
:1032F000C81EDA1EED1EF51E021F141F281F381FE0
:10330000461F531F611F6F1F851F901FA61FAD1FF4
:10331000BC1FCB1FD81FE11F09202B204020652098
:10332000772089209520A220B020D92004211721C0
:103330002B2133213B21472167217F219621BB216E
:10334000C921DD21EF21FF210B22A122A422A822E5
:10335000B122BC22C322D722E922EC22FC221C2368
:1033600023232A2331233A23442356235F236C2328
:10337000782384238A23BA23C923CE23E523FC237D
:1033800013242C2442245924702487249424A22416
:10339000B324C124C724D024E124F124FD24092529
:1033A0001725252536254225502558259B25AD2551
:1033B000BF25D125E325F525072616265626C42642
:1033C000C926DD26E3260327152728274A279B271A
:1033D000AB27D427E427EE27002812281D2824280D
:1033E0002E2837284728BD28E72811292F296229A8
:1033F00081299B29BA29C129CF29D429DE29ED2980
:10340000F629072A412A472A4F2A942AD72AE72A47
:10341000F92A0B2B1D2B282B3B2B442B7E2B8E2B81
:103420009F2BCF2BDF2BFE2B212C5A2C682C7A2C98
:10343000882C922CA42CB22CC32CD32C1C2D612DA7
:10344000A42DE52D222E632E962EDA2E1A2F672F0D
:10345000B72FFA2F1C3028303130403046305530ED
:1034600067307630853089302631343140314A3109
:103470005C31A531F031FC310032457872656D6503
:10348000207370616E206F6620746865205A207604
:10349000616C7565732100203C20005741524E49F4
:1034A0004E473A2046726F6E7420706F696E7420BA
:1034B0006E6F7420726561636861626C652E20595D
:1034C00020636F6F7264696E6174653A00004974BD
:1034D00065726174696F6E3A200000004041FEFF22
:1034E0007F400000E442FEFF7F4000005743FEFFA4
:1034F0007F40000057430000C8420000E442000043
:10350000C842000040410000C842000040410000A5
:1035100044430000E44200004443000057430000DD
:10352000444300004041FEFF7F4000005C43FEFF3B
:103530007F4000005C430000444300004041000025
:103540004443062833D036C23E013F154132423B48
:1035500043F2443B45F24622473B48F2493B4AF09E
:103560005898590C5A085B0C5C086110679B6E22D6
:1035700071077208FF095A0D000EFF19045E08203A
:10358000642B6D322FFF5A00205A3A0059002059FF
:103590003A00580020583A0024F4D43050C38E200A
:1035A000C2A24017828B7011127A910D816CD90AD8
:1035B000A861E108C7586607615143061E4B5D05C7
:1035C000C145A7041A411104093D9803713931031B
:1035D0004036DB0265339102D4305402802E1D0246
:1035E000632CEE01752AC501B028A00110278101C6
:1035F0008F2564012B244B01E0223401AC211F01F3
:103600008D200D01801FFC00841EED00971DDF0042
:10361000B81CD200E61BC600201BBC00641AB20016
:10362000B219A8000A19A0006A189900D1179100D0
:1036300040178B00B516840031167E00B315790053
:103640003A157300C7146F0058146A00EE13660031
:103650008813630025135E00C7125B006C125700CD
:1036600015125400C111510070114F0021114B006F
:10367000D61049008D104700461044000210420049
:10368000C00F4000800F3E00420F3C00060F3B0081
:10369000CB0E3800930E37005C0E3500270E340039
:1036A000F30D3200C10D3100900D3000600D2E0081
:1036B000320D2D00050D2C00D90C2B00AE0C29006D
:1036C000850C29005C0C2700350C27000E0C260009
:1036D000E80B2400C40B2400A00B23007D0B230067
:1036E0005A0B2100390B2100180B2000F80A1F008B
:1036F000D90A1E00BB0A1E009D0A1D00800A1D007B
:10370000630A1C00470A1B002C0A1B00110A1A003E
:10371000F7091A00DD091900C4091900AB091900DD
:10372000920917007B091800630917004C0916005D
:1037300036091600200916000A091500F5081500BB
:10374000E0081400CC081400B8081400A408140001
:10375000900813007D0812006B081300580812002F
:103760004608120034081100230811001208110045
:1037700001081100F0071000E0071000D00710004A
:10378000C0071000B0070F00A107100091070E003E
:1037900083070F0074070F0065070E0057070E0020
:1037A00049070E003B070D002E070E0020070D00F5
:1037B00013070D0006070D00F9060C00ED060D00BD
:1037C000E0060C00D4060C00C8060C00BC060C0079
:1037D000B0060C00A4060B0099060C008D060B0029
:1037E00082060B0077060B006C060B0061060A00D0
:1037F00057060B004C060A0042060A0038060A006B
:103800002E060A0024060A001A060A0010060900FD
:1038100007060A00FD050900F4050900EB0509008B
:10382000E2050900D9050900D0050900C70509000E
:10383000BE050900B5050800AD050800A50509008D
:103840009C050800940508008C0508008405080004
:103850007C050800740508006C0507006505080074
:103860005D050700560508004E05070047050700DF
:103870004005080038050700310507002A05070044
:10388000230507001C050600160507000F050700A5
:103890000805060002050700FB040600F504070002
:1038A000EE040600E8040600E2040700DB0406005C
:1038B000D5040600CF040600C9040600C3040600B0
:1038C000BD040600B7040600B1040500AC04060000
:1038D000A6040600A00405009B040600950405004C
:1038E000900406008A040500850405008004060093
:1038F0007A04050075040500700405006B040500DA
:1039000066040500610405005C0405005704050019
:10391000520405004D040500480405004304050059
:103920003E0404003A040500350405003004040098
:103930002C04050027040400230405001E040400D1
:103940001A04040016040500110404000D04040008
:10395000090405000404040000040400FC0304003E
:10396000F8030400F4030400F0030400EC03040073
:10397000E8030400E4030400E0030400DC030400A3
:10398000D8030400D4030400D0030400CC030400D3
:10399000C8030300C503030024F404D9201BC40C8E
:1039A0005C0E9804C4095F0265077101F405F90013
:1039B000FB04B30048048700C103690058035500A5
:1039C00003034500BE023A008402310053022A007C
:1039D0002902250004022000E4011C00C80119008E
:1039E000AF01170098011400840113007101100049
:1039F0006101100051010E0043010D0036010B0062
:103A00002B010B0020010B00150109000C0109001E
:103A100003010800FB000800F3000800EB000700AA
:103A2000E4000600DE000600D8000600D200060012
:103A3000CC000500C7000500C2000500BD00040061
:103A4000B9000400B5000400B1000400AD0004009A
:103A5000A9000400A5000300A20003009F000400C9
:103A60009B000300980003009500020093000300F0
:103A7000900003008D0002008B000300880002000C
:103A80008600020084000300810002007F00020023
:103A90007D0002007B000200790002007700010037
:103AA0007600020074000200720001007100020042
:103AB0006F0002006D0001006C0002006A0001004E
:103AC0006900020067000100660001006500010056
:103AD000640002006200010061000100600001005A
:103AE0005F0002005D0001005C0001005B0001005E
:103AF0005A00010059000100580001005700010060
:103B00005600010055000100540001005300000060
:103B1000530001005200010051000100500001005B
:103B20004F0001004E0000004E0001004D0001005A
:103B30004C0001004B0000004B0001004A00010056
:103B40004900010048000000480001004700010052
:103B5000460000004600010045000000450001004D
:103B60004400010043000000430001004200000047
:103B7000420001004100000041000100400001003E
:103B80003F0000003F0001003E0000003E00010039
:103B90003D0000003D0001003C0000003C00000032
:103BA0003C0001003B0000003B0001003A00000027
:103BB0003A0001003900000039000100380000001F
:103BC0003800000038000100370000003700010015
:103BD000360000003600000036000100350000000D
:103BE0003500000035000100340000003400000002
:103BF00034000100330000003300000033000100F6
:103C000032000000320000003200010031000000EC
:103C100031000000310001003000000030000000E1
:103C2000300001002F0000002F0000002F000000D6
:103C30002F0001002E0000002E0000002E000100C9
:103C40002D0000002D0000002D0000002D000100BF
:103C50002C0000002C0000002C0000002C000100B3
:103C60002B0000002B0000002B0000002B000100A7
:103C70002A0000002A0000002A0000002A0001009B
:103C80002900000029000000290000002900000090
:103C90002900010028000000280000002800000082
:103CA0002800000028000100270000002700000075
:103CB0002700000027000000270001002600000068
:103CC000260000002600000026000000260001005B
:103CD0002500000025000000250000002500000050
:103CE0002500000025000100240000002400000041
:103CF0002400000024000000240001002300000034
:103D00002300000023000000230000002300000027
:103D10002300000023000100220000002200000018
:103D2000220000002200000022000000220001000A
:103D300021000000210000002100000021000000FF
:103D400021000000210000002100010020000000EF
:103D500020000000200000002000000020000000E3
:103D60002000000020000000200001001F000000D3
:103D70001F0000001F0000001F0000001F000000C7
:103D80001F0000001F0001001E0000001E000000B8
:103D90001E0000001E0000004572723A204D494E80
:103DA00054454D50204245440054656D7065726124
:103DB000747572652068656174656420626564204D
:103DC0007377697463686564206F66662E204D4959
:103DD0004E54454D50207472696767657265642062
:103DE00021004572723A204D415854454D502042B1
:103DF00045440054656D7065726174757265206824
:103E000065617465642062656420737769746368B2
:103E10006564206F66662E204D415854454D5020F4
:103E20007472696767657265642021004572723A31
:103E3000204D494E54454D50003A204578747275D6
:103E4000646572207377697463686564206F666661
:103E50002E204D494E54454D502074726967676558
:103E60007265642021004572723A204D41585445D4
:103E70004D50003A204578747275646572207377EE
:103E8000697463686564206F66662E204D415854DE
:103E9000454D502074726967676572656420210022
:103EA00020484F54454E4420544845524D414C20E3
:103EB00052554E41574159002048454154424544CE
:103EC00020544845524D414C2052554E415741597E
:103ED00000544845524D414C2052554E415741598E
:103EE0000042454420544845524D414C2052554EC5
:103EF000415741590020544845524D414C2052559C
:103F00004E415741592028205052454845415420A0
:103F1000484F54454E44290020544845524D414C89
:103F20002052554E4157415920282050524548456E
:103F30004154204845415442454429005052454887
:103F4000454154204552524F520042454420505260
:103F50004548454154204552524F52004572723AED
:103F6000205052494E542046414E204552524F5205
:103F7000005072696E742066616E207370656564AE
:103F8000206973206C6F776572207468656E206598
:103F900078706563746564004572723A20455854C0
:103FA000522E2046414E204552524F5200457874C1
:103FB00072756465722066616E2073706565642039
:103FC0006973206C6F776572207468656E20657800
:103FD000706563746564002F2F20616374696F6E70
:103FE0003A706175736500504944204175746F746F
:103FF000756E652066696E69736865642120507509
:104000007420746865206C617374204B702C204B95
:104010006920616E64204B6420636F6E7374616EFF
:1040200074732066726F6D2061626F766520696EB1
:10403000746F20436F6E66696775726174696F6E25
:104040002E6800504944204175746F74756E652068
:104050006661696C6564212074696D656F757400B3
:1040600020403A00543A00423A00504944204175F9
:10407000746F74756E65206661696C656421205487
:10408000656D706572617475726520746F6F2068FC
:1040900069676800204B643A2000204B693A200091
:1040A000204B703A200020436C6173736963205089
:1040B000494420002054753A2000204B753A2000D6
:1040C000206D61783A2000206D696E3A20002064EE
:1040D0003A200020626961733A200090137D00B09D
:1040E000157800F0177300601A6E00F01C6900A0CC
:1040F0001F640050225F0020255A00E027550090E1
:104100002A5000202D4B00A02F4600F03141001016
:10411000343C00F0353700A037320020392D0060E4
:104120003A2800703B2300603C1E00203D1900C06F
:104130003D1400403E0F00A03E0A00F03E05004046
:104140003F0000703FFBFF903FF6FFB03FF1FFC024
:104150003FECFFD03FE7FFE03FE2FFF03FDDFFF045
:104160003FD8FF1000C90210012C0140012201704C
:10417000011801B0010E01F00104015002FA00B073
:1041800002F0003003E600D003DC009004D200709F
:1041900005C800A006BE000008B400B009AA00D0FF
:1041A0000BA000600E960060118C000015820020AC
:1041B000197800C01D6E00A0226400B0275A00903C
:1041C0002C500000314600E0343C001038320090A2
:1041D0003A2800603C1E00A03D1400803E0A0020EA
:1041E0003F000070012C0190012701B0012201C0A5
:1041F000011D01F00118011002130130020E0160CF
:1042000002090190020401C002FF000003FA00400D
:1042100003F5008003F000D003EB002004E60070FB
:1042200004E100E004DC004005D700C005D20040F6
:1042300006CD00D006C8008007C3003008BE00F0DD
:1042400008B900C009B400B00AAF00B00BAA00D092
:104250000CA500000EA000500F9B00C0109600504F
:1042600012910000148C00C0158700B0178200B0B6
:10427000197D00D01B7800001E730040206E009056
:10428000226900F024640040275F0090295A00E072
:104290002B5500102E500020304B0010324600E00D
:1042A00033410090353C001037370070383200A0A1
:1042B000392D00B03A2800A03B2300603C1E0010BE
:1042C0003D1900903D1400103E0F00703E0A00C0E2
:1042D0003E0500003F0000726573756C74207661C6
:1042E0006C75653A2025640A0020693D25326420FA
:1042F000636E743D2532642076616C3D2532640A1C
:1043000000636C7573746572733A0A0020693D2509
:10431000326420737465703D2532640A00736F72D5
:104320007465642073616D706C65733A0A00206671
:104330006163746F723A2025730A00746D633231C1
:1043400033305F7365745F776176652025686864D4
:1043500020256868640A00746D63323133305F670A
:104360006F746F5F73746570202564202564202549
:1043700064202564200A00746D63323133305F702D
:1043800072696E745F63757272656E747328290A40
:10439000094809520A580925640925640A5909255A
:1043A000640925640A5A0925640925640A45092512
:1043B000640925640A00746D63323133305F7365BC
:1043C000745F63757272656E745F72286178697369
:1043D0003D25642C2063757272656E743D25640AF8
:1043E00000746D63323133305F7365745F6375726F
:1043F00072656E745F6828617869733D25642C204E
:1044000063757272656E743D25640A00544D4320D5
:10441000445249564552204F56455254454D50201E
:1044200000746D63323133305F686F6D655F65783E
:10443000697420746D63323133305F73675F686F06
:104440006D696E675F617865735F6D61736B3D3039
:1044500078253032780A00746D63323133305F680A
:104460006F6D655F656E74657228617865735F6DE9
:1044700061736B3D307825303278290A00746D63A2
:10448000323133305F696E697428292C206D6F6476
:10449000653D25530A004E4F524D414C0053544543
:1044A000414C54480043616C6962726174696E6783
:1044B00020686F6D65006C63645F73656C6663682C
:1044C00065636B5F617869732025642C2025640A1D
:1044D0000041786973206C656E6774682064696652
:1044E000666572656E63653A004D656173757265E8
:1044F000642061786973206C656E6774683A002582
:10450000632041584953205347313D25640A004DEB
:104510003834004731205A313520463130303000B0
:1045200047323820570043686F6F736520636F6CA4
:104530006F723A00436F6E74696E756520776974A7
:104540006820616E6F7468657220626F7764656E53
:104550003F0053746174653A2000473736004D348C
:1045600035205A004D3435004738300054656D70A1
:10457000657261747572652063616C6962726174E1
:10458000696F6E206661696C65642E20436F6E747E
:10459000696E7565207769746820707265737369D8
:1045A0006E6720746865206B6E6F622E0054656DB7
:1045B00070657261747572652063616C69627261A5
:1045C00074696F6E20646F6E652E20436F6E746920
:1045D0006E75652077697468207072657373696E93
:1045E0006720746865206B6E6F622E0020003E00AD
:1045F0003E0020003E003E003E003E0020003E0007
:104600003E00200000002D2D2D2D2D2D2D2D2D2D8A
:104610002D2D2D2D2D2D2D2D2D2D004E2F41004ECC
:104620002F41006D6D00004D37303200496E7661CC
:104630006C6964205049442063616C2E207265735C
:10464000756C74732E204E6F742073746F72656472
:1046500020746F20454550524F4D2E004D3530305F
:10466000004731205A313520463135303000473946
:10467000310047312058353020593139302045300C
:1046800020463730303000473930004D3730320067
:104690004D3730322043004D3730322055004D37F2
:1046A0003032004731205A31352046313530300024
:1046B00047393100473120583530205931393020C1
:1046C0004530204637303030004D383300473930E0
:1046D000004D3834004D313034205330004D3834E3
:1046E000004731205831302059313830204634309D
:1046F0003030004731205A31302046313330302EAF
:10470000303030004D313430205330004D313034B2
:10471000205330004D31303700473120452D302EA9
:1047200030373530302046323130302E3030303076
:104730003000473120583530205935352045332E4B
:104740003632373733004731205832303020593530
:10475000352045302E343933383600473120583231
:104760003030205937352045332E36323737330035
:10477000473120583530205937352045302E3439CF
:1047800033383600473120583530205939352045E7
:10479000332E36323737330047312058323030200D
:1047A0005939352045302E343933383600473120D9
:1047B0005832303020593131352045332E3632379A
:1047C00037330047312058353020593131352045B5
:1047D000302E34393338360047312058353020599F
:1047E0003133352045332E363237373300473120C9
:1047F0005832303020593133352045302E3636315D
:104800003734004731205832303020593135352087
:1048100045322E3632373733004731205831303069
:104820002059313535204532004731205837352061
:10483000593135352045322E35004731204631304B
:104840003830004731205835302059313535004750
:1048500031204634303030004D3230342053313046
:104860003030004731205A302E3135302046373233
:1048700030302E30303000473120452D312E35304C
:104880003030302046323130302E30303030300051
:104890004D38330047393000473231004739322034
:1048A00045302E3000473120583130302E302045F1
:1048B00031322E352046313030302E300047312015
:1048C0005836302E302045392E30204631303030A9
:1048D0002E30004739322045302E30004732380024
:1048E0004D3130392053323135004D31393020537C
:1048F0003630004D31343020533630004D313034B5
:104900002053323135004D313037004739300047C0
:1049100031204531004D3832004731204531004DBE
:104920003833004D31303620532564004D3232305B
:1049300020532564003A2000202020202020202021
:10494000202020202020202020202000203A20008D
:104950002020202020202020202020202020202057
:104960002020202000202020202020202020202067
:104970002020002573002020002D2D3A2D2D002011
:1049800000200020004C002020002046002D2D2D6E
:10499000003E555342005344002D2D002520202079
:1049A0002020002020002020000120002020202D99
:1049B0002D2D200020205A002020000120004D36FF
:1049C000303000464C4558202D20203234302F35D1
:1049D000300050502020202D20203235342F31300F
:1049E000300048495053202D20203232302F3130B2
:1049F000300041425320202D20203235352F3130D8
:104A0000300050455420202D20203233302F3835AF
:104A100000504C4120202D20203231352F363000DF
:104A2000414253202020202D20203235352F313097
:104A300030006E6F7A7A6C65202D20203235302F51
:104A400030006661726D2020202D20203235302FFD
:104A50003630004D3234004D323320257300052EA0
:104A60002E004D37303100580059005A00457874F7
:104A70007275646572004739390044697361626C0C
:104A800065206661726D206D6F64653F00446973D7
:104A900061626C65206661726D206D6F64650046B1
:104AA00061726D206E756D626572004D3834005A0A
:104AB00030005A3100593000593100583000583117
:104AC00000456E642073746F7073206469616700C1
:104AD0004D3434004732382057001B5B303B3048A0
:104AE0004C617374207072696E74206661696C75B4
:104AF0007265731B5B313B3148506F77657220667E
:104B000061696C757265732020252D33641B5B32DF
:104B10003B314846696C616D2E2072756E6F7574FD
:104B2000732020252D33641B5B333B314843726176
:104B3000736820205820252D336420205920252DEE
:104B40003364001B5B303B3048546F74616C2066EB
:104B500061696C757265731B5B313B3148506F77CF
:104B60006572206661696C757265732020252D332E
:104B7000641B5B323B314846696C616D2E20727557
:104B80006E6F7574732020252D33641B5B333B31AE
:104B900048437261736820205820252D33642020FB
:104BA0005920252D336400546F74616C004C61737F
:104BB00074207072696E74001B5B303B3148426533
:104BC0006C74207374617475731B5B313B3248588D
:104BD0002025641B5B323B324859202564001B5B57
:104BE000323B3148416D6269656E743A202025641C
:104BF00025631B5B333B314850494E44413A2020EA
:104C0000202025642563001B5B303B31484E6F7AC2
:104C10007A6C653A202020256425631B5B313B318B
:104C2000484265643A202020202020256425630026
:104C30001B5B313B31485057523A20202020202026
:104C400025642E2530316456002D2D2D2D2D2D2D32
:104C50002D2D2D2D2D00466C617368416972204900
:104C60005020416464723A002D2D2D2D2D2D2D2DB7
:104C70002D2D2D2D004D61792031332032303138EA
:104C8000002D2D2D2D2D2D2D2D2D2D2D2D00453390
:104C900044763666756C6C0045494E53795F313009
:104CA0006100315F37356D6D5F4D4B33002D2D2D1C
:104CB0002D2D2D2D2D2D2D2D2D0020332E322E304E
:104CC0002D353535004669726D776172653A00257C
:104CD000642E25642E25642E2564004661696C20AF
:104CE0007374617473004661726D206E756D6265D8
:104CF0007200007263006265746100616C706861CB
:104D00000064657600505255534133444657003392
:104D10002E322E3000706F696E743D256420783D10
:104D2000256420793D2564207A3D25640A00787940
:104D30007A63616C5F66696E645F6265645F696E09
:104D400064756374696F6E5F73656E736F725F70A5
:104D50006F696E745F787920783D256C6420793DA9
:104D6000256C64207A3D256C640A0020783D25641A
:104D700020793D2564207A3D25640A002070617405
:104D80007465726E20666F756E6420617420256490
:104D90002025640A0073697A656F6628746F7461F0
:104DA0006C293D25640A0073697A656F6628626C18
:104DB0006F636B5F627566666572293D25640A00E4
:104DC00078797A63616C5F7365617263685A206E8B
:104DD0006F207369676E616C0A20783D256C6420D2
:104DE000793D256C64207A3D256C640A00204F4E85
:104DF0002D5349474E414C20617420783D25642055
:104E0000793D2564207A3D25642061643D25640A4E
:104E10000078797A63616C5F7365617263685A20A8
:104E2000783D256C6420793D256C64207A3D256CA5
:104E3000640A002079303D25640A002078303D2541
:104E4000640A004F4B0A004552524F522061643DA4
:104E500025640A002020207A303D25640A00207A4B
:104E6000303D25640A002079303D25640A00207811
:104E7000303D25640A0078797A63616C5F66696EFB
:104E8000645F706F696E745F63656E746572320A19
:104E9000006D61785F633D2564206D61785F723DD0
:104EA0002564206D61785F6D617463683D25640AD7
:104EB000000A002530327800206D696E3D2564209F
:104EC0006D61783D2564206469663D25640A006D46
:104ED00061785F633D253264206D61785F6C3D25AC
:104EE000640A00202532642025640A000A00253067
:104EF00032780078797A63616C5F7363616E5F709A
:104F00006978656C735F33327833322063783D257E
:104F1000642063793D2564206D696E5F7A3D256468
:104F2000206D61785F7A3D25640A0078797A636143
:104F30006C5F73706972616C382063783D25642002
:104F400063793D2564207A303D256420647A3D25CF
:104F500064207261646975733D25642061643D2538
:104F6000640A0078797A63616C5F73706972616C4E
:104F7000322063783D25642063793D2564207A30B2
:104F80003D256420647A3D256420726164697573EF
:104F90003D25642061643D25640A0078797A636167
:104FA0006C5F6D656173737572655F6C6561766565
:104FB0000A0078797A63616C5F6D656173737572ED
:104FC000655F656E7465720A000000F000F801FC10
:104FD00003FE07FE07FE07FE07FC03F801F00000D2
:104FE0000058025802584D584DB004F055F055B0D5
:104FF0000400000A0B02090C0D0E0807030401004F
:1050000000000000000000000000000000000000A0
:10501000000000000000000000000000001211105D
:105020000000000000000000000000000000000080
:105030000000000000000000000000000000000070
:1050400000000000000000010210202008081020CD
:105050004010204080020102010804020101020404
:1050600008102040808040201008040201800402C3
:10507000018040201008040201080402010102041A
:10508000081020408001020408102040801008040D
:105090000880102040044080102040048005050551
:1050A00005070508080808020202020A0A0808049F
:1050B00004040401010101010101010303030303CD
:1050C000030303040707070C0C0C0C0C0C0C0C025C
:1050D00002020206060606060606060B0B0B0B0B63
:1050E0000B0B0B07070A0A0A0A0A0A05050504043E
:1050F000040808000020002300260029002C002FAF
:105100000032000001000003010601090100002235
:1051100000250028002B002E003100340002010081
:1051200000050108010B0100002100240027002ACE
:10513000002D003000330001010000040107010AC6
:1051400001024E414E494E495459494E46CDCCCCB0
:105150003D0AD7233C17B7D13877CC2B329595E64B
:10516000241FB14F0A000020410000C84200401C2B
:105170004620BCBE4CCA1B0E5AAEC59D7400407A78
:1051800010F35A00A0724E18090010A5D4E80000D0
:10519000E87648170000E40B54020000CA9A3B006E
:1051A0000000E1F505000080969800000040420FE5
:1051B000000000A08601000000102700000000E8A9
:1051C00003000000006400000000000A000000006E
:1051D000000100000000002C76D888DC674F08230F
:1051E000DFC1DFAE59E1B1B796E5E3E453C63AE675
:1051F00051997696E8E6C28426EB898C9B62ED4055
:105200007C6FFCEFBC9C9F40F2BAA56FA5F49005A3
:105210005A2AF75C936B6CF9676DC11BFCE0E40DD7
:1052200047FEF520E6B500D0ED902E0300943577CB
:10523000050080841E080000204E0A000000C80CF3
:10524000333333330F986E12831141EF8D2114895C
:105250003BE65516CFFEE6DB18D1844B381BF77CB6
:105260001D901DA4BBE424203284725E228100C9FB
:10527000F124ECA1E53D2700CDA367CCCBE64401AA
:10528000FEA311241FBECFEFD1E2DEBFCDBF00E0F1
:105290000CBF18E0A0E0B2E0E2E9F8E903E00BBFE0
:1052A00002C007900D92AE36B107D9F72BE1AEE6FA
:1052B000B8E001C01D92AD37B207E1F712E5C0E8D2
:1052C000D2E500E006C022970109FE010BBF0F9452
:1052D000FDC1C837D10780E00807A9F70F94D5BBF7
:1052E0000D9437CC0C9400001092701B10925F1B31
:1052F0004091601B5091611BE2E6FBE180E090E091
:1053000061E070E09B01082E02C0220F331F0A9457
:10531000E2F724233523232B11F411821082019606
:1053200032968730910571F708958DE693E00F94DA
:1053300042C61092611B1092601BEAE7F0E0808188
:1053400087608083ACE7B0E08C9180648C9380812F
:10535000806880838FE580937E0082E080937D006B
:10536000C3CF282F2F7090917B0083FF02C09860DD
:1053700001C0977F90937B0090917C00822F877073
:10538000987F892B80937C000895982F21E030E04E
:1053900080E0A9014F755270452B29F04FEF490F5E
:1053A000911102C00895492F220F331F8F5F803162
:1053B00011F0942FEECF0895CF93C091701BC7FFCB
:1053C00036C0CF70EC2FF0E021E030E00C2E02C0B0
:1053D000220F331F0A94E2F74091601B5091611B2A
:1053E00024233523232B71F44091780050917900C8
:1053F000EE0FFF1FEE59F44E20813181240F351F2F
:1054000031832083C73010F4CF5F0BC080915F1BC6
:105410008F5F80935F1B803118F00F94F72064DF5B
:10542000C0E08C2FB2DF9DDFC093701B0AC080915B
:105430007A00806480937A008091701B80688093EA
:10544000701BCF910895813071F028F0823099F06F
:105450008330C9F021C080910B01662311F0816077
:1054600019C08E7F17C080910B01611102C082604C
:1054700011C08D7F0FC080910B01662311F08460F5
:1054800009C08B7F07C080910B01611102C080644D
:1054900001C08F7B80930B010000089590910B0158
:1054A000987B2AE0282720FD916021FD926022FD53
:1054B000946023FD906490930B010000089598B1CF
:1054C000907F8F70892B88B9000098B900000895EB
:1054D0002F923F924F925F926F927F928F929F9204
:1054E000AF92BF92CF92DF92EF92FF920F931F93F2
:1054F000CF93DF93CDB7DEB72C970FB6F894DEBF0E
:105500000FBECDBF9A8389836B015A014901D40133
:105510000F94D8C12B013C019A01DA010F94D8C134
:10552000460E571E681E791E9601D6010F94D8C1EB
:10553000460E571E681E791E29813A81D9010F94A3
:10554000D8C1460E571E681E791EC301B2010F94C2
:105550005DBD0F944BC020E030E040E05FE30F946E
:10556000E4BB0F9431BD8B013B012B011B017B017F
:105570007C876B871A86198618861F821E821D8279
:105580001C821B822B853C85232B09F45DC0E09196
:105590007208F0917308309739F429813A812E15F9
:1055A0003F0530F480E00CC019958823B1F34CC05E
:1055B000E00EF11E8B819C8101969C838B8381E0A0
:1055C000C214D30440F08260200E311EAD81BE8132
:1055D0001196BE83AD83A414B50440F08460400EE0
:1055E000511EEF81F8853196F887EF838614970472
:1055F00048F08460600E711E29853A852F5F3F4F09
:105600003A872987A981BA81EA1AFB0A2C183D0832
:105610004A185B086818790852DFE0916E08F0912B
:105620006F08309739F0B8018B859C8519950097E4
:1056300029F002C084EF91E00F9456B4EB85FC850D
:105640003197FC87EB879ECFE0917008F09171084D
:10565000309749F029853A854F8158856D817E8143
:105660008B819C8119958B859C852C960FB6F8941F
:10567000DEBF0FBECDBFDF91CF911F910F91FF9085
:10568000EF90DF90CF90BF90AF909F908F907F90E2
:105690006F905F904F903F902F9008959091F808F1
:1056A000911107C09091C00095FFFCCF8093C60078
:1056B0000895913031F49091C80095FFFCCF80930C
:1056C000CE000895CF92DF92EF92FF920F931F9337
:1056D000CF93DF938C01D42EC62FD72FD60EDC1696
:1056E00071F1F801E080F180C990C7010F94F8C80A
:1056F000C816F1F06C2DC7010F9428C9C7010F948B
:10570000F8C88C15A9F0ECE8F7E08491EF01882344
:1057100029F0C4DF2196FE018491F9CF8AE0DF9160
:10572000CF911F910F91FF90EF90DF90CF90B6CF68
:10573000F80180819181019691838083D0CFDF91A0
:10574000CF911F910F91FF90EF90DF90CF90089530
:10575000EF92FF920F931F93CF93DF931F92CDB7DA
:10576000DEB78C017B01460FF8018081918149836E
:105770000F94F8C8F70181937F01F801808191812E
:1057800001969183808349814E11EECF0F90DF9176
:10579000CF911F910F91FF90EF900895FF920F937B
:1057A0001F93CF93DF93CDB7DEB72C970FB6F89446
:1057B000DEBF0FBECDBF8C01F62E80E390E3A0E3E9
:1057C000B0E08D839E83AF83B8871C870B8744E04E
:1057D000BE016B5F7F4FCE010B9674DF40E165EC3D
:1057E00078E1CE010B966EDF40E165ED78E1CE0108
:1057F0000B9668DF40E165EB78E1CE010B9662DF46
:1058000044E06DEA78E1CE010B965CDF44E069EAA2
:1058100078E1CE010B9656DF44E061EB78E1CE01F2
:105820000B9650DF44E065E978E1CE010B964ADF44
:1058300044E065EE78E1CE010B9644DF44E069E98F
:1058400078E1CE010B963EDF44E06DE978E1CE01D0
:105850000B9638DF44E061EA78E1CE010B9632DF47
:1058600044E065EA78E1CE010B962CDF4CE069ED6F
:1058700079E0CE010B9626DF44E062ED79E0CE01BF
:105880000B9620DF44E068E972E0CE010B961ADF48
:1058900044E064E972E0CE010B9614DF44E060E975
:1058A00072E0CE010B960EDF44E068E872E0CE01B4
:1058B0000B9608DF44E064E872E0CE010B9602DF4D
:1058C00044E060E872E0CE010B96FCDE80E290E0FE
:1058D0009A87898742E0BE01675F7F4FCE010B96B2
:1058E000F1DE41E06EEC79E0CE010B96EBDE44E0B8
:1058F00066E272E0CE010B96E5DE44E06EE172E016
:10590000CE010B96DFDE44E069EC79E0CE010B9628
:10591000D9DE44E065EC79E0CE010B96D3DE44E0BD
:105920006AE172E0CE010B96CDDE41E065EF79E0F1
:10593000CE010B96C7DE44E066E472E0CE010B9622
:10594000C1DE89E08F1560F444E064EE72E1CE01BF
:105950000B96B8DE44E060EE72E1CE010B96B2DE4B
:1059600046E552E360E070E049835A836B837C83B1
:105970001C870B8744E0BE016F5F7F4FCE010B9603
:10598000A1DEE0EDFFE084918F01882331F086DE17
:105990000F5F1F4FF8018491F8CFECE7F7E0849197
:1059A0008F01882331F07ADE0F5F1F4FF801849159
:1059B000F8CF8AE073DE2C960FB6F894DEBF0FBEE8
:1059C000CDBFDF91CF911F910F91FF900895EF927E
:1059D000FF920F931F93CF93DF93182FC0EDDFE05B
:1059E000FE0184917E01882339F058DEFFEFEF1A23
:1059F000FF0AF7018491F7CFECE6F7E084917F018D
:105A0000882339F04BDEFFEFEF1AFF0AF70184918C
:105A1000F7CF8AE043DEFE018491B0EDEB2EBFE0CC
:105A2000FB2E882339F03ADEFFEFEF1AFF0AF70169
:105A30008491F7CF4091C5185091C6186091C7184E
:105A40007091C81884E697E00E946D3F4091C91894
:105A50005091CA186091CB187091CC1881E697E0EC
:105A60000E946D3F4091CD185091CE186091CF1893
:105A70007091D0188EE597E00E946D3F4091D1184B
:105A80005091D2186091D3187091D4188BE597E09B
:105A90000E946D3F8AE002DEFE018491A0EDEA2EB5
:105AA000AFE0FA2E882339F0F9DDFFEFEF1AFF0A95
:105AB000F7018491F7CFE1E4F7E084917F01882337
:105AC00039F0ECDDFFEFEF1AFF0AF7018491F7CF11
:105AD0008AE0E4DDFE018491F0EDEF2EFFE0FF2E81
